{
  "_format": "hh-sol-artifact-1",
  "contractName": "AuctionV1",
  "sourceName": "contracts/AuctionV1.sol",
  "abi": [
    {
      "inputs": [],
      "stateMutability": "nonpayable",
      "type": "constructor"
    },
    {
      "anonymous": false,
      "inputs": [
        {
          "indexed": true,
          "internalType": "address",
          "name": "previousOwner",
          "type": "address"
        },
        {
          "indexed": true,
          "internalType": "address",
          "name": "newOwner",
          "type": "address"
        }
      ],
      "name": "OwnershipTransferred",
      "type": "event"
    },
    {
      "inputs": [
        {
          "internalType": "uint256",
          "name": "_tokenId",
          "type": "uint256"
        },
        {
          "internalType": "address",
          "name": "_nftContract",
          "type": "address"
        }
      ],
      "name": "_checkAuctionStatus",
      "outputs": [
        {
          "internalType": "bool",
          "name": "",
          "type": "bool"
        }
      ],
      "stateMutability": "view",
      "type": "function"
    },
    {
      "inputs": [
        {
          "internalType": "address",
          "name": "_nftContract",
          "type": "address"
        },
        {
          "internalType": "uint256",
          "name": "_tokenId",
          "type": "uint256"
        }
      ],
      "name": "_updateStatus",
      "outputs": [],
      "stateMutability": "nonpayable",
      "type": "function"
    },
    {
      "inputs": [],
      "name": "auctions",
      "outputs": [
        {
          "internalType": "uint256",
          "name": "",
          "type": "uint256"
        }
      ],
      "stateMutability": "view",
      "type": "function"
    },
    {
      "inputs": [
        {
          "internalType": "address",
          "name": "_nftContract",
          "type": "address"
        },
        {
          "internalType": "uint256",
          "name": "_tokenId",
          "type": "uint256"
        }
      ],
      "name": "bid",
      "outputs": [],
      "stateMutability": "payable",
      "type": "function"
    },
    {
      "inputs": [
        {
          "internalType": "address",
          "name": "_nftContract",
          "type": "address"
        },
        {
          "internalType": "uint256",
          "name": "_tokenId",
          "type": "uint256"
        }
      ],
      "name": "canSell",
      "outputs": [
        {
          "internalType": "bool",
          "name": "",
          "type": "bool"
        }
      ],
      "stateMutability": "view",
      "type": "function"
    },
    {
      "inputs": [
        {
          "internalType": "uint256",
          "name": "_tokenId",
          "type": "uint256"
        },
        {
          "internalType": "address",
          "name": "_nftContract",
          "type": "address"
        },
        {
          "internalType": "address",
          "name": "_msgSender",
          "type": "address"
        }
      ],
      "name": "concludeAuction",
      "outputs": [],
      "stateMutability": "payable",
      "type": "function"
    },
    {
      "inputs": [
        {
          "internalType": "uint256",
          "name": "_basePrice",
          "type": "uint256"
        },
        {
          "internalType": "uint256",
          "name": "_endingUnix",
          "type": "uint256"
        },
        {
          "internalType": "address",
          "name": "_nftContract",
          "type": "address"
        },
        {
          "internalType": "uint256",
          "name": "_tokenId",
          "type": "uint256"
        },
        {
          "internalType": "address",
          "name": "_msgSender",
          "type": "address"
        }
      ],
      "name": "createAuction",
      "outputs": [
        {
          "internalType": "uint256",
          "name": "",
          "type": "uint256"
        }
      ],
      "stateMutability": "nonpayable",
      "type": "function"
    },
    {
      "inputs": [],
      "name": "end",
      "outputs": [
        {
          "internalType": "bool",
          "name": "",
          "type": "bool"
        }
      ],
      "stateMutability": "view",
      "type": "function"
    },
    {
      "inputs": [
        {
          "internalType": "address",
          "name": "_nftContract",
          "type": "address"
        },
        {
          "internalType": "uint256",
          "name": "_tokenId",
          "type": "uint256"
        }
      ],
      "name": "getAuctionEnded",
      "outputs": [
        {
          "internalType": "bool",
          "name": "",
          "type": "bool"
        }
      ],
      "stateMutability": "nonpayable",
      "type": "function"
    },
    {
      "inputs": [],
      "name": "getCurrentTime",
      "outputs": [
        {
          "internalType": "uint256",
          "name": "",
          "type": "uint256"
        }
      ],
      "stateMutability": "view",
      "type": "function"
    },
    {
      "inputs": [
        {
          "internalType": "address",
          "name": "_nftContract",
          "type": "address"
        },
        {
          "internalType": "uint256",
          "name": "_tokenId",
          "type": "uint256"
        }
      ],
      "name": "getHighestBid",
      "outputs": [
        {
          "internalType": "uint256",
          "name": "",
          "type": "uint256"
        }
      ],
      "stateMutability": "view",
      "type": "function"
    },
    {
      "inputs": [
        {
          "internalType": "address",
          "name": "_nftContract",
          "type": "address"
        },
        {
          "internalType": "uint256",
          "name": "_tokenId",
          "type": "uint256"
        }
      ],
      "name": "getHighestBidder",
      "outputs": [
        {
          "internalType": "address",
          "name": "",
          "type": "address"
        }
      ],
      "stateMutability": "view",
      "type": "function"
    },
    {
      "inputs": [
        {
          "internalType": "address",
          "name": "_nftContract",
          "type": "address"
        },
        {
          "internalType": "uint256",
          "name": "_tokenId",
          "type": "uint256"
        }
      ],
      "name": "getLastTime",
      "outputs": [
        {
          "internalType": "uint256",
          "name": "",
          "type": "uint256"
        }
      ],
      "stateMutability": "view",
      "type": "function"
    },
    {
      "inputs": [],
      "name": "getPendingReturns",
      "outputs": [
        {
          "internalType": "uint256",
          "name": "",
          "type": "uint256"
        }
      ],
      "stateMutability": "view",
      "type": "function"
    },
    {
      "inputs": [],
      "name": "owner",
      "outputs": [
        {
          "internalType": "address",
          "name": "",
          "type": "address"
        }
      ],
      "stateMutability": "view",
      "type": "function"
    },
    {
      "inputs": [],
      "name": "renounceOwnership",
      "outputs": [],
      "stateMutability": "nonpayable",
      "type": "function"
    },
    {
      "inputs": [
        {
          "internalType": "address",
          "name": "newOwner",
          "type": "address"
        }
      ],
      "name": "transferOwnership",
      "outputs": [],
      "stateMutability": "nonpayable",
      "type": "function"
    },
    {
      "inputs": [],
      "name": "up",
      "outputs": [
        {
          "internalType": "uint256",
          "name": "",
          "type": "uint256"
        }
      ],
      "stateMutability": "view",
      "type": "function"
    },
    {
      "inputs": [],
      "name": "withdraw",
      "outputs": [],
      "stateMutability": "payable",
      "type": "function"
    }
  ],
  "bytecode": "0x60806040523480156200001157600080fd5b506200001d3362000033565b620000283362000083565b600060035562000158565b600080546001600160a01b038381166001600160a01b0319831681178455604051919092169283917f8be0079c531659141344cd1fd0a4f28419497f9722a3daafe3b4186f6b6457e09190a35050565b6000546001600160a01b03163314620000e35760405162461bcd60e51b815260206004820181905260248201527f4f776e61626c653a2063616c6c6572206973206e6f7420746865206f776e657260448201526064015b60405180910390fd5b6001600160a01b0381166200014a5760405162461bcd60e51b815260206004820152602660248201527f4f776e61626c653a206e6577206f776e657220697320746865207a65726f206160448201526564647265737360d01b6064820152608401620000da565b620001558162000033565b50565b61176280620001686000396000f3fe6080604052600436106101145760003560e01c80638da5cb5b116100a0578063d712c1e611610064578063d712c1e6146103b6578063eade7f1814610453578063efbe1c1c14610475578063f2fde38b1461048f578063f48efd7c146104af57600080fd5b80638da5cb5b14610292578063a670a9b4146102c4578063c217d4d614610360578063c76659a114610380578063d5a49e01146103a057600080fd5b8063715018a6116100e7578063715018a6146101785780637665d51f1461018d5780637b0b6f21146101bd5780638226508d146101dd57806385aa61031461027c57600080fd5b806329cb924d146101195780633ccfd60b1461013b5780634a5503381461014557806359d667a514610165575b600080fd5b34801561012557600080fd5b50425b6040519081526020015b60405180910390f35b6101436104c2565b005b34801561015157600080fd5b50610143610160366004611583565b61055b565b610143610173366004611583565b610707565b34801561018457600080fd5b50610143610a85565b34801561019957600080fd5b506101ad6101a8366004611583565b610abb565b6040519015158152602001610132565b3480156101c957600080fd5b506101ad6101d83660046115ac565b610b4a565b3480156101e957600080fd5b506101286101f8366004611583565b6001600160a01b038083166000908152600460208181526040808420868552825292839020835160e081018552815486168152600182015492810192909252600281015490941692810192909252600383015460608301819052908301546080830152600583015460a083015260069092015460ff16151560c09091015292915050565b34801561028857600080fd5b5061012860035481565b34801561029e57600080fd5b506000546001600160a01b03165b6040516001600160a01b039091168152602001610132565b3480156102d057600080fd5b506102ac6102df366004611583565b6001600160a01b03918216600090815260046020818152604080842094845293815291839020835160e0810185528154861681526001820154938101939093526002810154909416928201839052600384015460608301528301546080820152600583015460a082015260069092015460ff16151560c09092019190915290565b34801561036c57600080fd5b5061012861037b366004611612565b610c24565b34801561038c57600080fd5b506101ad61039b366004611583565b610e53565b3480156103ac57600080fd5b5061012860015481565b3480156103c257600080fd5b506101286103d1366004611583565b6001600160a01b03918216600090815260046020818152604080842094845293815291839020835160e081018552815486168152600182015493810193909352600281015490941692820192909252600383015460608201529082015460808201819052600583015460a083015260069092015460ff16151560c09091015290565b34801561045f57600080fd5b5033600090815260076020526040902054610128565b34801561048157600080fd5b506002546101ad9060ff1681565b34801561049b57600080fd5b506101436104aa366004611562565b610f16565b6101436104bd3660046115d7565b610fb1565b336000908152600760205260409020546105175760405162461bcd60e51b81526020600482015260116024820152704e6f20546f6b656e732070656e64696e6760781b60448201526064015b60405180910390fd5b33600081815260076020526040808220549051909291829184156108fc0291859190818181858888f19350505050158015610556573d6000803e3d6000fd5b505050565b6001805490600061056b836116fb565b90915550506001600160a01b038083166000908152600460208181526040808420868552825292839020835160e081018552815486168152600182015492810192909252600281015490941692810192909252600383015460608301528201546080820152600582015460a082015260069091015460ff1615801560c08301526106305760405162461bcd60e51b8152602060048201526016602482015275151a1a5cc8185d58dd1a5bdb881a185cc8115b99195960521b604482015260640161050e565b6001600160a01b0383166000908152600460208181526040808420868552909152909120015442111561066e57600160c082015261066e8383611249565b6001600160a01b03928316600090815260046020818152604080842095845294815291849020835181546001600160a01b03199081169188169190911782559284015160018201559383015160028501805490931695169490941790556060810151600383015560808101519282019290925560a0820151600582015560c0909101516006909101805460ff1916911515919091179055565b6001600160a01b038083166000908152600460208181526040808420868552825292839020835160e081018552815486168152600182015492810192909252600281015490941692810192909252600383015460608301528201546080820152600582015460a082015260069091015460ff1615801560c08301526107c25760405162461bcd60e51b8152602060048201526011602482015270105d58dd1a5bdb881a185cc8195b991959607a1b604482015260640161050e565b80516001600160a01b03166108125760405162461bcd60e51b8152602060048201526016602482015275105d58dd1a5bdb88191bd95cc81b9bdd08195e1a5cdd60521b604482015260640161050e565b60c08101516002805460ff1916911515919091179055610832838361055b565b8060800151421015610556573360009081526005602090815260408083206001600160a01b038716845282528083208584529091529020546108748134611696565b8260600151108015610893575061088b8134611696565b826020015111155b6108d85760405162461bcd60e51b8152602060048201526016602482015275506c656173652073656e64206d6f72652066756e647360501b604482015260640161050e565b81516001600160a01b031633141561093d5760405162461bcd60e51b815260206004820152602260248201527f596f752063616e6e6f742062696420696e20796f7572206f776e20617563746960448201526137b760f11b606482015260840161050e565b6109473482611696565b3360008181526005602090815260408083206001600160a01b038a168085529083528184208985528352818420869055606088810187905288830186905290845260068352818420898552909252918290208251918201909252929350919081906001600160a01b0390811682526020808301959095524260409283015283546001808201865560009586528686208551600393840290910180546001600160a01b03199081169286169290921781558689015181840155958501516002968701559983168652600480885284872099875298875294839020875181548b16908416178155958701519486019490945590850151918401805490971691161790945560608201519381019390935560808101519183019190915560a0810151600583015560c001516006909101805460ff1916911515919091179055565b6000546001600160a01b03163314610aaf5760405162461bcd60e51b815260040161050e90611661565b610ab960006114a9565b565b6001600160a01b0380831660009081526004602081815260408084208685528252808420815160e08101835281548716815260018201549381019390935260028101549095169082015260038401546060820152908301546080820152600583015460a082015260069092015460ff16151560c083015290610b3d848461055b565b60c0015190505b92915050565b6001600160a01b0380821660009081526004602081815260408084208785528252808420815160e0810183528154871680825260018301549482019490945260028201549096169186019190915260038101546060860152918201546080850152600582015460a085015260069091015460ff16151560c0840152909190610b3d5760405162461bcd60e51b815260206004820152602760248201527f41756374696f6e20666f722074686973204e4654206973206e6f7420696e2070604482015266726f677265737360c81b606482015260840161050e565b600080546001600160a01b03163314610c4f5760405162461bcd60e51b815260040161050e90611661565b6001600160a01b038416600090815260046020908152604080832086845290915290206005015415610cc35760405162461bcd60e51b815260206004820152601f60248201527f5468652041756374696f6e2068617320616c7265616479207374617274656400604482015260640161050e565b610cce8560016116ae565b9450610cda8542611696565b94506009610ce842876116cd565b1015610d535760405162461bcd60e51b815260206004820152603460248201527f54686520656e64696e6720756e69782073686f756c642062652061746c656173604482015273742035206d696e757465732066726f6d206e6f7760601b606482015260840161050e565b6040805160e0810182526001600160a01b03848116825260208083018a8152600084860181815260608601828152608087018d81524260a0890190815260c089018581528e8916865260048089528b87208f8852909852998520985189546001600160a01b0319908116918a16919091178a55955160018a01559251600289018054909616971696909617909355915160038087019190915593519285019290925551600584015592516006909201805460ff191692151592909217909155805491610e1e836116fb565b909155505050506001600160a01b03919091166000908152600460209081526040808320938352929052206005015492915050565b600080546001600160a01b03163314610e7e5760405162461bcd60e51b815260040161050e90611661565b6001600160a01b038084166000908152600460208181526040808420878552825292839020835160e0810185528154861681526001820154928101929092526002810154909416928101929092526003830154606083015282015460808201819052600583015460a083015260069092015460ff16151560c082015290421115610f0c576001915050610b44565b6000915050610b44565b6000546001600160a01b03163314610f405760405162461bcd60e51b815260040161050e90611661565b6001600160a01b038116610fa55760405162461bcd60e51b815260206004820152602660248201527f4f776e61626c653a206e6577206f776e657220697320746865207a65726f206160448201526564647265737360d01b606482015260840161050e565b610fae816114a9565b50565b6000546001600160a01b03163314610fdb5760405162461bcd60e51b815260040161050e90611661565b6001600160a01b038083166000908152600460208181526040808420888552808352818520825160e08101845281548816808252600183015482870152600283015489169482019490945260038201546060820152948101546080860152600581015460a08601526006015460ff16151560c085015293889052929052918316148061109157506001600160a01b0380841660009081526004602090815260408083208884529091529020600201548382169116145b6110f45760405162461bcd60e51b815260206004820152602e60248201527f596f7520617265206e6f7420617574686f72697a656420746f20636f6e636c7560448201526d3232903a34329030bab1ba34b7b760911b606482015260840161050e565b428160800151106111405760405162461bcd60e51b815260206004820152601660248201527541756374696f6e2054696d652072656d61696e696e6760501b604482015260640161050e565b600061114c8585610b4a565b90508061115d5761115d848661055b565b6001600160a01b03841660008181526004602081815260408084208a8552825280842080546001600160a01b0319908116825560018201869055600282018054909116905560038101859055928301849055600583018490556006928301805460ff1916905593835290815282822088835290529081206111dd916114f9565b6000826060015160016111f091906116ae565b600380549192506000611202836116e4565b909155505082516040516001600160a01b039091169082156108fc029083906000818181858888f19350505050158015611240573d6000803e3d6000fd5b50505050505050565b6001600160a01b0382166000908152600660209081526040808320848452825280832080548251818502810185019093528083529192909190849084015b828210156112dc576000848152602090819020604080516060810182526003860290920180546001600160a01b0316835260018082015484860152600290910154918301919091529083529092019101611287565b505050506001600160a01b0384811660009081526004602081815260408084208885528252808420815160e08101835281548716815260018201549381019390935260028101549095169082015260038401546060820152908301546080820152600583015460a082015260069092015460ff16151560c0830152919250905b6001835161136a91906116cd565b81116114a257816060015183828151811061139557634e487b7160e01b600052603260045260246000fd5b6020026020010151602001511461149057600560008483815181106113ca57634e487b7160e01b600052603260045260246000fd5b6020026020010151600001516001600160a01b03166001600160a01b031681526020019081526020016000206000866001600160a01b03166001600160a01b031681526020019081526020016000206000858152602001908152602001600020546007600085848151811061144f57634e487b7160e01b600052603260045260246000fd5b6020026020010151600001516001600160a01b03166001600160a01b03168152602001908152602001600020600082825461148a9190611696565b90915550505b8061149a816116fb565b91505061135c565b5050505050565b600080546001600160a01b038381166001600160a01b0319831681178455604051919092169283917f8be0079c531659141344cd1fd0a4f28419497f9722a3daafe3b4186f6b6457e09190a35050565b5080546000825560030290600052602060002090810190610fae91905b808211156115425780546001600160a01b03191681556000600182018190556002820155600301611516565b5090565b80356001600160a01b038116811461155d57600080fd5b919050565b600060208284031215611573578081fd5b61157c82611546565b9392505050565b60008060408385031215611595578081fd5b61159e83611546565b946020939093013593505050565b600080604083850312156115be578182fd5b823591506115ce60208401611546565b90509250929050565b6000806000606084860312156115eb578081fd5b833592506115fb60208501611546565b915061160960408501611546565b90509250925092565b600080600080600060a08688031215611629578081fd5b853594506020860135935061164060408701611546565b92506060860135915061165560808701611546565b90509295509295909350565b6020808252818101527f4f776e61626c653a2063616c6c6572206973206e6f7420746865206f776e6572604082015260600190565b600082198211156116a9576116a9611716565b500190565b60008160001904831182151516156116c8576116c8611716565b500290565b6000828210156116df576116df611716565b500390565b6000816116f3576116f3611716565b506000190190565b600060001982141561170f5761170f611716565b5060010190565b634e487b7160e01b600052601160045260246000fdfea2646970667358221220186bc940fdc4f50a2f8c0b3d300b3d57b80191b264bb2cd46d1ff85a402f89b964736f6c63430008040033",
  "linkReferences": {},
  "deployedLinkReferences": {}
}